:020000040800F2
:10000000700900204D020008B3250008E91C000813
:10001000B12500082B0800081B2E00080000000076
:10002000000000000000000000000000C1290008DE
:100030002D0800080000000097280008C3290008C8
:1000400067020008670200086702000867020008EC
:1000500067020008670200086702000867020008DC
:1000600067020008670200086702000867020008CC
:1000700067020008670200086702000867020008BC
:10008000670200086702000867020008000000001D
:1000900000000000000000000000000067020008EF
:1000A000670200086702000867020008670200088C
:1000B000670200086702000867020008670200087C
:1000C000670200086702000867020008670200086C
:1000D00067020008670200086702000800000000CD
:1000E00067020008670200086702000800000000BD
:1000F000000000000000000000000000670200088F
:10010000000000006702000867020008670200089C
:1001100000000000000000000000000000000000DF
:10012000670200086702000867020008670200080B
:10013000670200080000000000000000000000004E
:10014000000000000000000000000000670200083E
:1001500067020008670200086702000867020008DB
:1001600067020008670200080000000000000000AD
:10017000000000000000000000000000000000007F
:1001800000000000670200080000000000000000FE
:10019000670200086702000800F002F800F047F864
:1001A0000AA090E8000C82448344AAF10107DA45D2
:1001B00001D100F03CF8AFF2090EBAE80F0013F0DD
:1001C000010F18BFFB1A43F0010318479C330000CE
:1001D000BC330000103A24BF78C878C1FAD852075F
:1001E00024BF30C830C144BF04680C6070470000B1
:1001F0000023002400250026103A28BF78C1FBD830
:10020000520728BF30C148BF0B607047642900F017
:10021000F780752900F0F480782900F02D81002006
:1002200070471FB503F06FF91FBD10B510BD00F08A
:10023000C7FA1146FFF7F5FF02F04CFF00F0E5FAB0
:1002400003B4FFF7F2FF03BC00F0E8FA0948804767
:1002500009480047FEE7FEE7FEE7FEE7FEE7FEE7A8
:10026000FEE7FEE7FEE7FEE704480549054A064BC0
:1002700070470000592A0008990100087003002007
:1002800070090020700500207005002053EA020C60
:1002900000F069802DE9F04B4FF00006002B1FBFE6
:1002A000B3FA83F503FA05F424FA05F65E4012BFAB
:1002B0001643B2FA82F502FA05F4C5F120051EBF15
:1002C00022FA05FC44EA0C04203556EA044C4FEAB5
:1002D000144418BF641C4FF000084FF0000990420E
:1002E00071EB030C39D3002919BFB1FA81F701FA78
:1002F00007F6B0FA80F700FA07F6C7F120071EBF2D
:1003000020FA07FC46EA0C062037B6FBF4FCA7EB04
:100310000507103F07F01F0BCBF120060CFA0BFB73
:100320002CFA06F644BFB3460026202FA4BF5E4633
:100330004FF0000B5BEA060C08BF4FF0010B19EB06
:100340000B09ABFB027C48EB0608C01B06FB02CC8A
:100350000BFB03CC71EB0C01C1E70B460246414697
:100360004846BDE8F08B13B54FF000004FF0000198
:10037000AFF30080BDE81C40704700000FB41CB50F
:100380000C0007AA009001D02044401E074B7B447C
:1003900069460190069800F0EAF9002C03D06946FE
:1003A000002000F0F7F91CBC5DF814FB0D04000000
:1003B00070B5044685690068C10601D5302600E0A5
:1003C0002026C00707D070BDD4E9012130469047F0
:1003D000206A401C20626D1EF6D570BD70B50446C3
:1003E00085690078C00707D170BDD4E901212020BC
:1003F0009047206A401C20626D1EF6D570BD00003B
:100400002DE9F0410646002410687529314616A5ED
:1004100010D0AFF30080002802DA404213A507E0B5
:1004200031688A0701D512A502E0490704D511A554
:10043000012401E0AFF3008000210A2206F1240725
:1004400009E0B0FBF2FCB0FBF2F302FB1C00303021
:1004500078541846491C0028F3D123462A463046D2
:10046000BDE8F04100F024B9000000002D000000BC
:100470002B0000002000000070B504460D46214608
:100480001068AFF300802188090502D50F4A7A442D
:1004900002E00E4A7A440E32002104F1240305E002
:1004A00000F00F060009965D5E54491C0028F7D144
:1004B00020780023000704D5702D02D009B1022353
:1004C00011322046BDE8704000F0F2B89B300000C9
:1004D0002DE9F05F894604464FF0000ADFF824B1A9
:1004E000FB44C0F820A02046E168884700287DD062
:1004F000252806D0D4E901219047206A401C2062BB
:10050000F1E700255F462046E16888472028064637
:1005100007DB312E05D2B81910F8200C08B10543BD
:10052000F1E7A80701D525F00405C4F81CA00027B1
:10053000C4F818A02A2E09D0304602F09CFC38B32B
:1005400004EB8708303EC8F8186019E059F8041B1E
:10055000204604EB87029161E1688847012F064637
:1005600018D1E069002820DA25F020051DE0D8F830
:10057000180000EB800006EB40003038C8F8180087
:100580002046E1688847064602F075FC0028EED157
:10059000012F0AD02E2E08D12046E16888477F1C03
:1005A0000646022F45F02005C4DBA069002803DAC7
:1005B000404245F00105A061E80701D025F0100593
:1005C000A6B1A6F14100192802D8203645F40065ED
:1005D0004A463146204625604D46FFF717FE60B17A
:1005E000012807D0ED1D25F0070000E007E000F12D
:1005F000080978E705F1040975E730467AE7206ACB
:10060000BDE8F09F7130000010B5431C02E010F807
:10061000011B71B18107FAD14FF0013202C88C1A67
:100620008C4314EAC211F9D0C01A0A0603D0C01EC6
:1006300010BDC01A10BD0A0401D0801E10BD0902F1
:10064000FCD0401E10BD4FF0000200B5134694468A
:100650009646203922BFA0E80C50A0E80C50B1F11A
:100660002001BFF4F7AF090728BFA0E80C5048BF2E
:100670000CC05DF804EB890028BF40F8042B08BFCC
:10068000704748BF20F8022B11F0804F18BF00F8C8
:10069000012B704770477047704710B500F088F81D
:1006A000006810BD10B5044600F082F8046010BD6B
:1006B0002DE9F0470D4699469246044600F124087C
:1006C0000168880604D5E06921F01001216000E08E
:1006D0000120A84201DD471B00E00027A1697A192B
:1006E00002EB0900081AA0612078C00602D4204657
:1006F000FFF75EFE002608E0D4E901211AF80600A3
:100700009047206A401C761C20624E45F4DB20781E
:10071000C0060AD52046FFF74BFE06E0D4E90121CA
:1007200030209047206A401C2062381EA7F1010744
:10073000F4DC07E0D4E9012118F805009047206AAD
:10074000401C2062281EA5F10105F3DC2046FFF7BE
:1007500045FE2078000602D50220BDE8F087012082
:10076000FBE7000001694A1C02610878704700B588
:100770008FB0CDE901310021059105497944CDE9DA
:10078000031011466846FFF7A3FE0FB000BD00003E
:10079000E5FFFFFF0A6802F8010B0A607047D1E924
:1007A00000239A4202D2531C0B6010707047000065
:1007B00000487047100300200048704710030020D5
:1007C0007546FFF7F9FFAE4605006946534620F02F
:1007D0000700854618B020B5FFF746FDBDE820406C
:1007E0004FF000064FF000074FF000084FF0000BED
:1007F00021F00701AC46ACE8C009ACE8C009ACE8A0
:10080000C009ACE8C0098D46704710B50446AFF387
:1008100000802046BDE81040FFF712BD01491820B6
:10082000ABBEFEE7260002007047FEE770470000FF
:1008300070B5044600F004F90546601C02D0044877
:100840000078044400F0FCF8401BA042FAD370BDCD
:100850000C0000202DE9F84FDFF8B8A10022012498
:1008600003254FF00F090AF1040BAAF1040E00BF93
:100870000B6804FA02F63340B34273D10F7907F0E4
:100880000307012F01D0022F16D187684FEA4208D3
:1008900005FA08FC27EA0C07D1F80CC00CFA08FC92
:1008A0004CEA070CC0F808C04768B7430E79C6F396
:1008B000001696403E4346600E79F643B6070DD0CB
:1008C000C768560005FA06FC27EA0C07D1F808C0ED
:1008D0000CFA06FC4CEA070CC0F80CC00E7906F0C6
:1008E0000306022E10D1D60800EB8608D8F8206047
:1008F00057074FEAD76C09FA0CF7BE430F6907FA9E
:100900000CF73743C8F8207006684FEA420C05FA26
:100910000CF7BE430F7907F0030707FA0CF73743CC
:1009200007604E6816F4403F6DD03B4E376847F481
:1009300080473760366822F0030706F48046009649
:10094000364E07EB060CDCF8086897073F0F09FAEC
:1009500007F826EA0806DFF8C880404503D14FF0C3
:1009600000081EE04FE0DFF8BC80404502D14FF0A8
:10097000010816E0DFF8B080404502D14FF00208D0
:100980000FE0DFF8A880404502D14FF0030808E0EF
:10099000DFF89C80404502D14FF0040801E04FF0A1
:1009A000070808FA07F848EA0608CCF80888DAF8D1
:1009B00000605746D1F804C09E435FEACC2C00D5B6
:1009C0001E433E60DBF800605F46D1F804C09E43E2
:1009D0005FEA8C2C00D51E433E60DEF8006077464F
:1009E000D1F804C09E435FEA8C3C00D51E433E60B4
:1009F000084F083F3E68D1F804C09E435FEACC3CF4
:100A000000D51E433E60521C102AFFF431AFBDE8F2
:100A1000F88F0000083C014044380240003001409B
:100A2000000002400004024000080240000C0240A6
:100A3000001002400AB1816170470904FBE7000021
:100A400001488068704700000C00002070B5040069
:100A500025D094F83D00002520B984F83C5020466C
:100A600000F052FA242084F83D002068016821F04B
:100A7000010101602068016841F4004101602068C3
:100A8000016821F40041016000F098FB4D4A616863
:100A9000914201D84C4900E04C49884201D20120E2
:100AA00070BD4B492368B0FBF1F15E6826F03F064C
:100AB0000E435E606368934206D94FF496735943C0
:100AC0004FF47A73B1FBF3F12368491C1E6A26F0D8
:100AD0003F06314319626168914210D84900401EB7
:100AE000B0FBF1F2521CC2F30B02042A01D2042023
:100AF00022E0B0FBF1F0401CC0F30B001CE0A26848
:100B0000F2B301EBC10303EB0116431EB3FBF6F393
:100B10005B1C43F480431B0549D092B301EBC10237
:100B200002EB0111401EB0FBF1F0401CC0F30B00C2
:100B300040F4804040F400402168CA694CF6FF73DD
:100B40009A431043C861D4E9071001432068026842
:100B500022F0C00211430160D4E90301014320687F
:100B6000826848F2FF339A4311438160D4E905015A
:100B700008432168CA6822F0FF021043C86001E000
:100B80000EE016E02068016841F001010160256473
:100B9000202084F83D00256384F83E50002070BD7D
:100BA00001EB4106431EB3FBF6F35B1CB3E70120E8
:100BB000C2E701EB4101401EB0FBF1F0401CC0F365
:100BC0000B00B7E7A086010080841E0000093D00ED
:100BD00040420F002DE9FF4F83B09A46DDE91187AF
:100BE00093460446DDF84090FFF72AFF054694F847
:100BF0003D00202870D11923012274492046009518
:100C000001F088F90028F5D194F83C00012863D060
:100C1000012084F83C0020680168C90703D10168FD
:100C200041F0010101602068016821F40061016068
:100C3000222084F83D00402084F83E0000262664EF
:100C4000C4F82490A4F82A80608D20856048E06272
:100C5000CDE9007553465A462046049901F05CF8E8
:100C6000002879D1208DD0B1012821D00228206818
:100C700024D0416980690090208D032866D801281E
:100C80002BD0544902283B464FF00002009557D024
:100C90008846204601F03EF900285DD13AE0206800
:100CA000416981690091016841F4007101607DE052
:100CB0002068016821F480610160F0E7016821F497
:100CC000806101602068016841F400610160206872
:100CD00041698069009069E075E02A4639462046FE
:100CE00001F0BEF988BB54E02068016841F400714E
:100CF000016020680069616A0870606A401C606277
:100D0000218D491E2185618D491E618521680969F2
:100D1000017042E02068016821F480610160206870
:100D20000069616A0870606A401C6062208D401E24
:100D30002085608D401E60853B460022414600951F
:100D4000204601F0E7F800B9CEE705E02A4639462B
:100D5000204601F085F918B1012007B0BDE8F08FF9
:100D600020680069616A0870606A401C6062208DBA
:100D7000401E81B22185608D401E608520684269D9
:100D8000D243520712D4032903D1016821F48061B0
:100D9000016020680069616A0870606A401C6062D6
:100DA000208D401E2085608D401E6085208D00288E
:100DB0007FF462AF202084F83D0084F83E6084F820
:100DC0003C600020C9E70220C7E7000002001000D5
:100DD0000000FFFF040001002DE9FF4F83B09A4699
:100DE000DDE9119793460446DDF84080FFF728FEC1
:100DF000054694F83D0020287FD11923012240495F
:100E00002046009501F086F8002876D194F83C0041
:100E1000012872D0012084F83C0020680168C907CD
:100E200003D1016841F0010101602068016821F4EB
:100E300000610160212084F83D00402084F83E00DC
:100E400000262664C4F82480A4F82A90608D2085AA
:100E50002C48E062CDE9007553465A462046049975
:100E600000F0D8FF70B930E02A463946204601F03C
:100E70002FF958B1206C042804D12068016841F48E
:100E800000710160012007B0BDE8F08F606A216841
:100E900000780861606A401C6062218D491E89B239
:100EA0002185628D521E628522685369DB435B0790
:100EB0000BD469B100781061606A401C6062208DBB
:100EC000401E2085608D401E6085208D0028CBD17E
:100ED0002A463946204600F0F1FF0028CAD154F8CE
:100EE0003D0B016841F400710160202004F81E09E7
:100EF000E67766770020C6E7FFE70220C3E7000039
:100F0000020010000000FFFF10B586B00446142157
:100F10006846FFF798FB13492068884220D11248A1
:100F20000021026842F002020260006800F0020044
:100F30000590C02000901220CDE90101032003900C
:100F40000420049069460948FFF784FC06481030E5
:100F5000016841F400110160006800F40010059080
:100F600006B010BD0054004030380240000402407A
:100F70000248816802781144816070470C000020AB
:100F80000B4810B5016841F400710160016841F43B
:100F900080610160016841F480710160032000F00C
:100FA00061F80F2000F006F800F024F8002010BDD2
:100FB000003C024070B50D4D04464FF47A7128781C
:100FC000B1FBF0F00A490968B1FBF0F000F088FCD1
:100FD00048B9102C07D200222146501E00F022F8FA
:100FE00000206C6070BD012070BD00000C0000206E
:100FF000180000200A4808B5016841F480410160EA
:10100000006800F4804000900548001F016841F02E
:1010100080510160006800F08050009008BD000021
:1010200044380240F0B40E4B1B680C46C3F3022355
:10103000C3F10705042D00D90425191D072901D284
:10104000002300E0DB1E012606FA05F1491E2140BF
:1010500099409E40761E16403143F0BC01F0DEBE42
:101060000CED00E0064900F0070208684FF6FF03A8
:10107000184040EA0220034A10430860704700000D
:101080000CED00E00000FA052DE9F0470E460500E2
:1010900065D0DFF81481D8F80000F7B200F007003F
:1010A000B04207D288F80070D8F8000000F00700BE
:1010B000B04254D128683D4C810712D5400703D572
:1010C000206840F4E05020602878000703D52068AD
:1010D00040F4604020602068A96820F0F0000843D8
:1010E00020602878C0072DD0304968680839012869
:1010F00012D0022813D0032811D0096889070029CB
:101100002DDA216821F0030101432160FFF798FCEB
:10111000814641F2883A0EE009688903EFE70968E1
:101120008901ECE7FFF78CFCA0EB0901514502D9DE
:101130000320BDE8F0872068696800F00C00B0EB80
:10114000810FEFD1D8F80010404601F00701B142FD
:1011500007D90770006800F00700B04201D00120F5
:10116000E7E72878400705D52068E96820F4E050D3
:10117000084320602878000706D52068296920F4F4
:10118000604040EAC100206000F038F82168084A59
:10119000C1F30311515CC840064908600648006865
:1011A000FFF708FF0020C4E7003C02400838024077
:1011B00015350008180000201000002004480549DB
:1011C00000680968044AC1F38221515CC840704735
:1011D0001800002008380240253500080448054959
:1011E00000680968044AC1F34231515CC840704745
:1011F000180000200838024025350008154810B5B1
:10120000006810F00C02144813D01449042A0FD0BF
:10121000082A0ED10F4C241F2268236802F03F02D7
:101220005B0207D52068C0F38810A0FB010106E02F
:10123000084610BD2168C1F38811A1FB00010023FD
:10124000FFF724F82168C1F30141491C4900B0FBB4
:10125000F1F010BD083802400024F40040787D0110
:101260002DE9F84F04006ED02078DFF84C93C007CA
:10127000A9F104054AD009F104000168C1F3810114
:10128000012908D00068C0F3810002280AD1D9F8EA
:101290000000400206D52868800337D56068002822
:1012A000E1D033E06068B0F5803F10D0B0F5A02FFA
:1012B000286810D020F480302860286820F480202E
:1012C00028606068A8B1FFF7BBFB06460DE0286800
:1012D00040F48030F4E740F480202860F7E700BF56
:1012E000FFF7AEFB801B642873D828688003F7D50E
:1012F0000CE0FFF7A5FB064605E000BFFFF7A0FBEB
:10130000801B6428F0D828688003F7D42078DFF8A1
:10131000AC8280074FF0000A3ED5A748001D016847
:1013200011F00C0F08D00068C0F3810002280BD127
:10133000D9F80000400207D42868800716D5E06875
:10134000012800D112E033E1E068B8B10120C8F80B
:101350000000FFF775FB064605E000BFFFF770FBD6
:10136000801B0228C0D828688007F7D52868216923
:1013700020F0F80040EAC10028600DE0C8F800A0A5
:10138000FFF75EFB064604E0FFF75AFB801B0228CE
:101390001FD828688007F7D42078000722D5864F09
:1013A00087486169703771B101210160FFF748FB1F
:1013B000064604E0FFF744FB801B022809D8386882
:1013C0008007F7D50EE0C0F800A0FFF739FB06460E
:1013D00005E082E0FFF734FB801B02287DD83868E7
:1013E0008007F7D42078400768D5DFF8CCB1002714
:1013F0000BF13C0BDBF80000C0000BD4DBF8001055
:1014000041F08051CBF80010DBF80000012700F01C
:10141000805000906B4E3068C00510D4306840F4A6
:1014200080703060FFF70CFB009005E0FFF708FBD1
:101430000099401A022850D83068C005F6D55E4E93
:10144000A0686C3601280FD00528306810D020F035
:1014500001003060306820F004003060A068B8B14E
:10146000FFF7EEFA00900FE0306840F00100F4E77B
:1014700040F004003060F7E7FFF7E2FA0099411A04
:1014800041F28830814266D830688007F4D50EE09A
:10149000FFF7D6FA009007E0FFF7D2FA0099411A59
:1014A00041F28830814256D830688007F4D42FB199
:1014B000DBF8001021F08051CBF80010A069C8B310
:1014C0003D49091D0968C1F3810102294AD002285A
:1014D000504607D0C8F8600000E03CE0FFF7B0FAE3
:1014E00004463BE04746C8F86000FFF7A9FA064605
:1014F00005E000BFFFF7A4FA801B02282BD828685C
:101500008001F7D4D4E907010843A16A2E4A4908AB
:1015100002EB0141626A41EA8211084394F82C10FF
:1015200040EA0161C9F8001001203866FFF788FA27
:10153000044606E03EE000BFFFF782FA001B0228E7
:1015400009D828688001F7D534E000BFFFF778FAA2
:10155000001B022802D90320BDE8F88F286880010B
:10156000F4D427E00128F7D0D9F80000E26900F4AC
:10157000800191421CD1226A00F03F01914217D1B3
:1015800047F6C071626A0140B1EB821F10D1A26AB6
:101590004FF0FF3300F4403103EB5202B1EB024F46
:1015A00006D194F82C1000F07060B0EB016F01D000
:1015B0000120D1E70020CFE7043802400000474275
:1015C000800E4742007000400000FFFF70B504002D
:1015D00009D0606A002540B125616561A56294F873
:1015E000510040B10CE0012070BD6068B0F5827F11
:1015F000F4D0E561F2E784F85050204600F044F85A
:10160000022084F851002068016821F04001016047
:10161000A088218900F4827001F404410843A18963
:1016200001F400610843217C01F002010843217D9F
:1016300001F001010843218B01F400710843217F6F
:1016400001F03801084394F8201001F080010843AC
:10165000218D01F40051084321680860A06904212C
:1016600001EA104094F8241001F0100108432168A9
:1016700048602068C16921F40061C161656501208D
:1016800084F85100002070BD10B586B004461421C6
:101690006846FEF7D8FF13492068884220D11248D7
:1016A0000021026842F480520260006800F4805019
:1016B00005900D481438026842F00102026000688B
:1016C00000F001000590E02000900220CDE901012A
:1016D000032003900520049069460448FFF7BAF8F8
:1016E00006B010BD00300140443802400000024006
:1016F0002DE9FF4F81B01D46934604464FF0010986
:101700000E9EFFF79DF9074694F851006168012885
:1017100006D0B1F5827F3CD1A168C9BB042838D17D
:101720000298002871D0BBF1000FFBD0002DF9D03A
:1017300094F8500001282CD04FF0010A84F850A0F2
:1017400094F85100042802D0052084F851004FF08D
:101750000008C4F85480C4F838B0E587A58702991A
:101760002163E586A586C4F84080C4F844802068DB
:101770000168490603D4016841F040010160E06856
:10178000B0F5006F606808D0F0B3012D49D081E05A
:10179000FFE7022005B0BDE8F08F08B1012D39D177
:1017A000206B21680088C860206B801C2063E08E5D
:1017B000401EE0862EE02068816889070FD5E18E03
:1017C00069B1B9F1010F0AD1216B0988C160206BA1
:1017D000801C2063E08E401EE0864FF000092068E8
:1017E0008168C9070CD0E18F51B1C068A16B088036
:1017F000A06B801CA063E08F401EE0874FF00109C2
:10180000FFF71EF9C01B01E00BE067E0B04201D317
:10181000701C50D1E08E0028CDD1E08F0028CAD1B5
:101820003EE0206B216800780873206B401C206329
:10183000E08E401EE0862DE02068816889070FD584
:10184000E18E69B1B9F1010F0AD1216B09780173F9
:10185000206B401C2063E08E401EE0864FF00009A4
:1018600020688168C9070CD0E18F51B1C068A16BB5
:101870000870A06B401CA063E08F401EE0874FF013
:101880000109FFF7DDF8C01BB04202D3701C01D084
:1018900011E086B1E08E0028CED1E08F0028CBD1B8
:1018A0003A463146204600F0F7FF50B120206065EF
:1018B00084F8508012E084F851A084F8508003200E
:1018C00068E7A06818B92068C1688068009084F84B
:1018D00051A084F85080606D0028F1D0012059E7B4
:1018E00010B5401EB0F1807F01D3012010BD4FF034
:1018F000E02460610F21601701F090FA0020A061E0
:1019000007202061002010BD10B590F83C20012A6E
:1019100022D0012280F83C20CA688C6822F44072F0
:1019200022434C6822F4806222430C6822F4006255
:1019300022430C6922F4805222434C6922F4005263
:101940002243C969002322F480420A4301684A64A1
:1019500080F83C30002010BD022010BD70B590F81A
:101960003C20012A2CD0012480F83C40022280F83F
:101970003D2003685A689D6822F070060A68324369
:101980005A60104B02689A420ED0B2F1804F0BD0D1
:101990000D4B9A4208D00D4B9A4205D00C4B9A42FF
:1019A00002D00C4B9A4204D1496825F080031943B8
:1019B000916080F83D40002180F83C10084670BDE1
:1019C000022070BD000001400004004000080040FB
:1019D000000C00400040014010B586B004461421C0
:1019E0006846FEF730FE0E492068884216D10D4841
:1019F0000021026842F001020260006800F001006C
:101A000005904FF4706000900220CDE901010120A3
:101A1000CDE9031069460448FEF71CFF06B010BD6F
:101A200000000140303802400000024070B504461A
:101A300090F83C0000260D4601280FD0012084F8C4
:101A40003C006AB1042A1DD0082A2FD00C2A3FD0AE
:101A50000126002084F83C00304670BD022070BD95
:101A6000206801F051F82068816941F00801816126
:101A70002068816921F004018161206881692A69F7
:101A8000114311E0206801F067F82068816941F492
:101A9000006181612068816921F480618161206831
:101AA00081692A6941EA02218161D2E7206801F057
:101AB0007FF82068C16941F00801C1612068C169EF
:101AC00021F00401C1612068C1692A69114311E054
:101AD000206801F099F82068C16941F40061C16192
:101AE0002068C16921F48061C1612068C1692A69E7
:101AF00041EA0221C161ACE710B5040003D094F8BB
:101B00003D0010B107E0012010BD002084F83C002A
:101B1000204600F01FF8022084F83D00211D2068B7
:101B200000F0A2FF012084F8460084F83E0084F80B
:101B30003F0084F8400084F8410084F8420084F8B3
:101B4000430084F8440084F8450084F83D000020F8
:101B500010BD000008B500680649884208D1064853
:101B6000016841F001010160006800F0010000908F
:101B700008BD0000000001404438024070B5040078
:101B800004D094F84100002510B106E0012070BD9A
:101B900084F84050204600F023F8242084F84100C7
:101BA0002068C16821F40051C160204601F076F838
:101BB0002068016921F4904101612068416921F0A8
:101BC0002A0141612068C16841F40051C160656427
:101BD000202084F8410084F842006563002070BD35
:101BE00010B586B0044614216846FEF72CFD134953
:101BF0002068884220D112480021026842F4003255
:101C00000260006800F4003005900D48103802684A
:101C100042F001020260006800F0010005900C2013
:101C200000900220CDE901010320039007200490D9
:101C300069460448FEF70EFE06B010BD00440040A1
:101C400040380240000002402DE9F843044690F875
:101C50004100984616460D46202802D00220BDE8D5
:101C6000F88385B17EB100206064212084F84100B2
:101C7000FEF7E6FEA6848146E684A0682027B0F53C
:101C8000805F02D003E00120E9E7206910B12E4611
:101C900000250EE000260CE08021204601F084F8AB
:101CA000A8B9C6B116F8010B21684860E08C401E47
:101CB000E084E08C4B464FF00002CDF80080002815
:101CC000EAD14FF04001204601F06EF840B184F8AF
:101CD00041700320C3E735F8020BC0F30800E3E7C7
:101CE00084F841700020BAE7FEE701684A69D243F0
:101CF00052050FD46FF480624A61002140F8301F12
:101D0000202242738173026942F00402026101736E
:101D100001207047002070472DE9F84F0446006805
:101D200089460B9D01689846174641F48061016021
:101D30002068016841F48071016000954FF0011B3B
:101D40000022594620460A9B00F0E4F84FF4007A3E
:101D500040B120680068C00501D5C4F840A0032048
:101D6000BDE8F88F216809F0FE0008612B4628497C
:101D700020460A9A00F016F9F0BB20684169806994
:101D800000902A4620460A9900F0A2F940B1206C42
:101D900004283AD12068016841F40071016034E000
:101DA000FEB2B8F1010F09D02168380A08612A464D
:101DB00020460A9900F08CF90028E8D120680661D5
:101DC0002A4620460A9900F083F90028DFD12068CE
:101DD000016841F480710160009500225946204657
:101DE0000A9B00F097F80028B3D1216809F0FF00A2
:101DF00040F00100086100E007E02B46044920465E
:101E00000A9A00F0CFF80028AAD00120A8E7000025
:101E1000020001002DE9F843044600680D46DDE9A3
:101E2000089701689846164641F4807101604B4658
:101E300000224FF001112046009700F06BF848B1E6
:101E400020680068C00502D54FF4007020640320AC
:101E5000BDE8F883216805F0FE0008613B464A466C
:101E60001549204600F09EF888B9206841698069CC
:101E700000903A464946204600F02AF948B1206CC5
:101E8000042804D12068016841F400710160012038
:101E9000DEE7F5B2B8F1010F09D02168300A086118
:101EA0003A464946204600F013F90028E7D1206859
:101EB00005610020CCE700000200010070B5164665
:101EC0000D4604461EE02046FFF70FFF08B1012033
:101ED00070BD681C16D0FEF7B3FD801BA84200D869
:101EE00085B920684069C04340070BD5002044F8FD
:101EF000300F20216173A073216941F0200121611D
:101F00002073E4E720684069C0434007DBD4002029
:101F100070BD00002DE9F047984617460D4604466F
:101F2000C1F30746DDF820902AE000BFB8F1FF3F7B
:101F300026D0FEF785FDA0EB0901414502D8B8F196
:101F4000000F1DD12068012E16D0806925EA0000FF
:101F50000004000C12D00020B84211D1002044F837
:101F6000300F20216173A073216941F020012161AC
:101F700020730120BDE8F0874069E7E70120EBE727
:101F80002068012E0AD0806925EA00000004000CB8
:101F900006D00020B842C9D00020EBE74069F3E743
:101FA0000120F7E72DE9F047984616460D4604460E
:101FB0004FF000094FF0200AC1F3074723E02068E3
:101FC0004069C043400515D42068016841F40071A0
:101FD000016021686FF480604861C4F8309084F833
:101FE0003DA084F83E90216C41F00401216484F806
:101FF0003C9021E0701C06D0FEF722FDA0EB08000B
:10200000B04203D816B1012F1FD021E02068012F64
:1020100015D0806925EA00000004000C18D000BF2C
:1020200044F8309F84F80DA084F80E90216941F0A7
:102030002001216184F80C900120BDE8F0874069FF
:1020400025EA00000004000CEAD12068406901E0A4
:102050002068806925EA00000004000CAFD1ECE79D
:102060002DE9F041002590460E460446202728E041
:102070004069C043C0060CD454F8301B6FF0100008
:10208000486144F810596777A577206A2062257760
:1020900014E0FEF7D5FCA0EB0800B04200D886B9EA
:1020A00020684069C04340060BD544F8305F677331
:1020B000A573206940F02000206125730120BDE850
:1020C000F08120684169C9434906D1D40020F6E770
:1020D00070B516460D4604461EE02046FFF705FE85
:1020E00008B1012070BD681C16D0FEF7A9FC801B4A
:1020F000A84200D885B920684069C04300060BD5C6
:10210000002044F8300F20216173A073216941F051
:10211000200121612073E4E720684069C043000684
:10212000DBD4002070BD0000F0B514462DED048B0B
:1021300083B00D46070009D045B13CB1DFED308AD0
:102140000026B0EE689AB0EE688A3BE0042003B047
:10215000BDEC048BF0BD0620009095F8301001AB6B
:102160004322384600F078FF08B10120EFE7BDF8C0
:10217000040040BA02B200EE102ABDF80600B8EE24
:10218000C01A9FED200A40BA01B2C1EE000ABDF8A4
:10219000080040BA00B230EE899A00EE901AB8EE0C
:1021A000E01AC1EE000A70EEA88A00EE900A05203F
:1021B000F8EEE00A80EE801A31EE088AFEF738FB6E
:1021C000761CB6B2A642C6D300EE104AB8EE400A5C
:1021D000C9EE000A00EE104AB8EE400AC5ED090A41
:1021E000C8EE800A00EE104AB8EE400AC5ED0A0AB1
:1021F000C8EE000AC5ED0B0A00F00AFF0020A6E7B2
:1022000000000000000003437CB50C46050011D01F
:1022100084B134212046FEF716FA00208DF8040020
:10222000012601AB7522D0212846009600F014FF4C
:1022300010B107E004207CBD9DF80420712A0AD06B
:10224000702A08D001AB7522D2212846009600F0F2
:1022500003FF10B107E0D02108E09DF80420712AA7
:1022600003D0702A01D002207CBDD22184F8312015
:1022700084F8301001236B22284600F00AFF10BBBF
:102280003220FEF7D5FA94F8301003231A2228469C
:1022900000F0FFFEB8B994F830100923192228463F
:1022A00000F0F7FE78B994F8301000231B2228467E
:1022B00000F0EFFE38B994F8301000231C222846B5
:1022C00000F0E7FE08B101207CBD00F0A1FE002077
:1022D0007CBD000070B50C462DED048B8EB070B146
:1022E0006CB10E21009194F8301004AB3B2200F049
:1022F000B3FE30B101200EB0BDEC048B70BD0420E4
:10230000F9E7BDF81000BDF8182040BA52BA06B27D
:1023100013B2BDF81200BDF81A2040BA52BA01B289
:1023200015B2BDF81400BDF81C2040BA52BA00B274
:1023300012B29FED3B0A01EE106ADFED3A0AB8EEE9
:10234000C11A61EE003A01EE101AB8EEC11A21EE80
:10235000002A01EE100AB8EEC11A61EE002A00EE62
:10236000103AB8EEC00A20EE201A00EE105AB8EE6D
:10237000C00A60EE201A00EE102AB8EEC00A20EE65
:10238000203A94ED060A33EEC09A94ED070A72EEF5
:10239000408A94ED080A32EEC08A94ED090A31EEC3
:1023A000400A8DED010AD4ED0A0A71EEE00ACDED86
:1023B000020A94ED0B1A33EE411A8DED031A00F068
:1023C00003FE03AA02A901A800F0B2FD84ED009A61
:1023D000C4ED018A84ED028A9DED010A84ED030AB1
:1023E0009DED020A84ED040A9DED030A84ED050AC1
:1023F00029EE090A08EEA80A08EE080A00F01EFDF8
:1024000010EE100A6FF07C5108440749884201D24F
:10241000012000E0002084F8320000206BE700007B
:10242000000080382D23FA3BFFFFBF0030B587B096
:1024300014216846FEF707F914480024016841F0AA
:1024400001010160016801F001010591016841F09D
:102450000201016000680E4D00F002000590224666
:1024600001212846FEF7E6FA012202212846FEF75E
:10247000E1FA03210120CDE90010CDE902416946CE
:102480002846FEF7E7F907B030BD000030380240BB
:10249000000402400F4810B50D4901604FF48271ED
:1024A000416000218160C1604FF400720161C0E9A8
:1024B00005122822C0E90721416281620A21C16216
:1024C000FFF784F8002801D072B6FEE710BD0000C7
:1024D000003001407000002010B592B000240F942D
:1024E0001C2168461094FEF7AEF8202107A8FEF7DD
:1024F000AAF82E482C4901605321C0E9011444F682
:102500001F61C0E9031444618461FFF7F5FA08B163
:1025100072B6FEE70F940FA924481094FFF71EFA35
:1025200008B172B6FEE7602000904FF47A70CDE9F2
:102530000104039404940594002269461B48069400
:10254000FFF774FA08B172B6FEE70422694617482D
:10255000FFF76CFA08B172B6FEE708226946134825
:10256000FFF764FA08B172B6FEE70C2269460F481D
:102570000194FFF75BFA08B172B6FEE7079408947E
:1025800009944FF400500A94CDE90B4007A907487D
:102590000E94FFF7B9F908B172B6FEE70348FFF7EA
:1025A0001BFA12B010BD000000000140C80000205E
:1025B000FEE7FEE77023072200F08ABF2DE9F8430B
:1025C0001646DDE908890C46050012D08CB186B1AB
:1025D0001F46052200F07CFFA773474606222146CE
:1025E000284600F0A1FE20F028032FB1022F06D0CC
:1025F00007E00320BDE8F88343F0200301E043F047
:10260000080306222146284600F062FF4F460622B4
:102610002146284600F088FE20F0060377B1012FFE
:1026200004D0022F05D0032F08D105E043F00203A8
:1026300004E043F0040301E043F0060306222146D0
:10264000284600F045FF00222146284600F06CFE97
:1026500040F00C0300222146284600F039FF0F23EA
:1026600005272846214667F31F13042200F030FF98
:102670004FF001081D222146284600F055FE40F08B
:1026800004031D222146284600F022FF43461C2257
:102690002146284600F01CFF1D222146284600F056
:1026A00043FE40F002031D222146284600F010FFA1
:1026B0003068C4F80F003079E074334610222146A8
:1026C0002846009700F013FF33460A222146284689
:1026D000009700F00CFF2146284600F0CEFE0020B7
:1026E00088E71CB50022009213460192E22200F016
:1026F000DFFB1CBD1CB50022009213460192E122B3
:1027000000F0D6FB1CBD70B505000C4643D0F4B3F9
:102710002068E0B3A068D0B3084600F0EEFB204686
:1027200000F0B0FB0520FEF783F87326204600F08A
:10273000E9FB5021284600F08DFE3146284600F086
:1027400089FE204600F0D9FB01231A46214628467F
:1027500000F0BEFE012302222146284600F0B8FE0A
:102760000C2300222146284600F0B2FE21462846CE
:10277000FFF720FF21462846FFF7BCFF21462846E9
:10278000FFF7AFFF2146284600F009F800E002E01D
:1027900018B1002070BD032070BD022070BD2DE96E
:1027A000F0410E468046052200F0BEFD80F02A056D
:1027B00004462B4605223146404600F089FE05229C
:1027C0003146404600F0B0FD07462346052231461B
:1027D000404600F07DFEBD4202D10120BDE8F081FF
:1027E0000020FBE72DE9FC471D460A9F16460C46D4
:1027F0005FEA000904D01CB116B10DB1202D02D939
:102800000320BDE8FC8700F038FE21464846FFF76C
:10281000D1FE4FF00008CDE900853346A0222146C5
:10282000484600F045FBA18801222068FEF702F926
:102830004FF4AF71CDF8008000BF0098401C0090AD
:102840008842F9DB204600F01DFBFEF7F9F805464B
:1028500016E02146484600F05AFB810607D52023A2
:1028600007222146484600F033FE0020C9E7C00693
:1028700006D5102307222146484600F029FE04E031
:10288000FEF7DEF8401BB842E3D321464846FFF787
:1028900031FF0420B5E77047F8B515460E460B46E4
:1028A000009204460122022100F02CF8A0B913483E
:1028B00013490068B0FBF1F04FF47A71484300907F
:1028C0006068B0F5827F0DD133460022802120461A
:1028D000009500F017F870B1606D40F02000606561
:1028E0000320F8BD009830B1401E00902068806839
:1028F000C0430006F6D50020F8BD000018000020F7
:1029000000366E012DE9F8431E469146884604467E
:10291000089DFEF795F8401B351AFEF791F807461B
:1029200026480068C0F3CB3068430AE0701C09D029
:10293000FEF786F8C01BA8420FD275B10098B8B355
:10294000401E00902068816838EA010033D00021E1
:102950004945EBD10020BDE8F8832068416821F0AB
:10296000E00141606068B0F5827F0BD1A068B0F5EE
:10297000004F02D0B0F5806F04D12068016821F0CB
:1029800040010160A06AB0F5005F09D120680168CC
:1029900021F4005101602068016841F40051016098
:1029A000012084F85100002084F850000320D2E771
:1029B000FFE70025C6E70121CAE700001800002054
:1029C0007047FEF7D5BA000030B593B030216846A5
:1029D000FDF739FE14210CA8FDF735FE1C48002434
:1029E000016841F080510160006800F08050119052
:1029F0001848016841F4404101600068022500F474
:102A000040401190012003901020049000950695FD
:102A10000820CDE907405420CDE9090504200B909A
:102A20006846FEF71DFC08B172B6FEE70F20CDE93F
:102A30000C054FF48050CDE90E4002210CA81094F3
:102A4000FEF722FB002801D072B6FEE713B030BDBE
:102A500040380240007000400248016841F47001B3
:102A60000160704788ED00E0F0B502681F4B204C14
:102A7000204D214E4FF0804C984207D0604505D044
:102A8000A04203D0A84201D0B04203D122F0700787
:102A90004A683A43984210D060450ED0A0420CD00C
:102AA000A8420AD0B04208D0144CA04205D0144C21
:102AB000A04202D0134CA04203D122F44074CA6851
:102AC00022434C6922F0800222438C68C4620C6865
:102AD0008462984201D109690163016841F00401EF
:102AE0000160012141610260F0BD00000000014071
:102AF0000004004000080040000C0040004001407D
:102B0000004401400048014030B5036A026A22F0E7
:102B1000010202624268846924F073050C682C4348
:102B200023F002058B682B430A4DA8420BD123F0FA
:102B30000805CB6822F440722B434D6923F004034F
:102B400015438A692A43426084614968416303628C
:102B500030BD00000000014030B5026A036A23F076
:102B600010030362436884690D6824F4E64444EA70
:102B700005248D6822F0200242EA05120B4DA8427E
:102B80000ED1CD6822F0800242EA05124D6923F48D
:102B9000406343EA85038D6922F0400243EA8503DE
:102BA0004360846149688163026230BD0000014076
:102BB00030B5036A026A22F4807202624268C46914
:102BC00023F4007324F073050C682C438D6843EAEA
:102BD00005230C4DA8420ED1CD6823F4006343EACF
:102BE00005234D6922F4405242EA05128D6923F40F
:102BF000806342EA05124260C4614968C1630362AE
:102C000030BD00000000014030B5046A026A22F4C1
:102C1000805202624268C3690D6823F4E64343EAC6
:102C200005238D6824F4005444EA0534064DA84277
:102C300004D14D6922F4804242EA85124260C361A8
:102C400049680164046230BD0000014001680C3134
:102C500051E8002F22F4907241E80023002BF5D1B7
:102C60000168143151E8002F22F0010241E80023ED
:102C7000002BF5D1016B012909D101680C3151E814
:102C8000002F22F0100241E80023002BF5D1202173
:102C900080F84210002101637047000070B50446BF
:102CA00000680169E26821F4405111430161216922
:102CB000A068E26908436169114308432168CA6852
:102CC00049F20C639A430243CA6020684169A269D1
:102CD00021F440711143416131492068884202D09A
:102CE0003049884202D1FEF779FA01E0FEF766FA30
:102CF000E2690023192164253226B2F5004F62688B
:102D000028D0A0FB0101930F9200FDF7BFFA014606
:102D1000B0FBF5F06FF01802504301EB800006EBBA
:102D20000010B0FBF5F000F0F002B1FBF5F002EBA3
:102D30000012B1FBF5F06FF01803584301EB80006F
:102D400006EB0010B0FBF5F000F00F002168104416
:102D5000886070BDA0FB010192185B41FDF796FAF7
:102D60000146B0FBF5F00201B1FBF5F06FF018037E
:102D7000584301EB800006EBC000B0FBF5F000F01B
:102D8000F80002EB4002B1FBF5F0584301EB800084
:102D900006EBC000B0FBF5F000F00700D6E700003E
:102DA00000100140001401402DE9F84398461746F1
:102DB0000D460446089E24E0701C22D0FDF740FE1C
:102DC000A0EB0800B0421AD8CEB12068C16849070C
:102DD00017D5802D15D0402D13D00168C9430907A0
:102DE0000FD401680025406800902046FFF72EFFB1
:102DF0000820606484F840500120BDE8F883032077
:102E0000FBE72068006835EA000004D00020B842E3
:102E1000D2D00020F1E70120F9E7FEE70907090E0B
:102E2000002804DB00F1E02080F80014704700F077
:102E30000F0000F1E02080F8141D704710B52DED53
:102E4000028BB1EEC08A18EE100A20F00040C0F1EB
:102E5000FF40C00F0AD010EE100A20F00040C0F171
:102E6000FF40C00F04BF0120FDF71CFCB0EE480A74
:102E7000BDEC028B10BD30380A2801D2012070470A
:102E800000207047818800680022FDF7D3BD000054
:102E9000B0F5004F02DB47F6FF70704703498842E8
:102EA00001DA0846704700B2704700000080FFFF5B
:102EB0002DE9F0478246DDE908671D46144689463C
:102EC000084600F01FF82146504600F0C3FA80463D
:102ED00000240AE00DB1295D00E0FF21504600F01A
:102EE000B9FA06B13055641CE4B2BC42F2D348468C
:102EF00000F003F84046BDE8F08781898068012230
:102F0000FDF798BD818980680022FDF793BD70B5FB
:102F100004460D460846FFF7F5FFFF21204600F066
:102F200099FA04462846FFF7E8FF204670BD0000E6
:102F300030B5DFED220A224BB0EE601A1C78B0EEFD
:102F4000600A14B11423002404E05B88002B34D001
:102F5000002418E01B4D05EB8405D5ED001A194D32
:102F6000503505EB840531EE811AD5ED001A154D6B
:102F7000A03505EB840571EEA00AD5ED001A641C9E
:102F8000A4B231EE800A9C42E4D301EE903AF8EE0E
:102F9000611A81EE212A01EE103AB8EE411AC0EE14
:102FA000811A00EE903A80ED002AF8EE600A80EE79
:102FB000201AC1ED001A82ED001A30BD0000000099
:102FC000080000202002002010490F4A488802EB28
:102FD000800282ED000A0C4A503202EB8002C2ED00
:102FE000000A094AA03202EB8002401C82ED001A5E
:102FF0001422B0FBF2F302FB13004880002801D139
:103000000120087070470000200200200800002006
:103010000F4B10B59FED0D0AA3F150020020A2F155
:10302000500100BF03EB800484ED000A02EB800432
:1030300084ED000A01EB8004401C84ED000A142892
:10304000F0DB044900204880087010BD000000003B
:10305000C0020020080000202DE9FE4F00240C9E35
:103060001D4690468946824664278DE8E00001238C
:10307000424649465046FDF7ADFD002807D00A20DC
:10308000FDF7D6FB641CE4B2032CEED30120BDE8AF
:10309000FE8F2DE9FF4784B00024642590468946C1
:1030A0008246012607AF0097CDE90165012342461C
:1030B00049465046FDF790FE002807D00A20FDF74C
:1030C000B7FB641CE4B2032CEDD3012008B0BDE8CB
:1030D000F08700001FB5FDF753FFFFF775FCFFF702
:1030E000A5F95C485A49002401605B49C0E9011414
:1030F0004FF48041C0E9034144618461C4610462CA
:10310000FDF7A4FC08B172B6FEE7FFF7C3F9FFF7BD
:10311000E3F950485149F43001604FF4E131C0E91E
:1031200001140C21C460C0E904418461C461FEF74C
:1031300025FD08B172B6FEE7C820FDF779FB48A06F
:1031400000F0B8F948494348FFF75EF8464D064697
:10315000334695F8300095F831104008CDE900105D
:1031600042A2802105F14800FDF708F905F1480069
:1031700000F0A0F94FF47A7736B146A000F09AF942
:103180003846FDF755FBFBE745A000F093F94FF4F7
:10319000487235492F48FEF7C7FF0346324847A219
:1031A00080214830FDF7EAF82F48483000F082F9D6
:1031B000042001268DF80C0003A96420CDE9001637
:1031C000029095F83010334619222248FDF704FE8C
:1031D00025483F4934300160868081600221818129
:1031E0000146A0F58E70FFF78EFA054603461E488D
:1031F00038A280214830FDF7C1F81B48483000F064
:1032000059F935B138A000F055F93846FDF710FBF3
:10321000FBE71549CDE9004634316E23354AA1F567
:103220008E70FFF7CBF934A000F044F9FDF708FCED
:10323000354C606035A000F03DF900BFFDF700FCA3
:103240006168421AFAD4491D616000F07DF8F5E723
:10325000005400401C000020801A0600004400407A
:10326000424F4F540D0A0000580100204D50552088
:10327000696E69742073743D25752077686F3D30E1
:10328000782530325820616464723D3078253032C0
:10329000580D0A004D5055204641494C0D0A00007A
:1032A0004779726F2063616C69622E2E2E206B65E8
:1032B0006570207374696C6C0D0A00004779726F39
:1032C0002063616C69622073743D25750D0A0000EE
:1032D000000402404E524620696E69742073743DAA
:1032E00025640D0A000000004E5246204641494C1C
:1032F0000D0A0000103500084E5246205054582048
:103300004F4B0D0A000000000000002053545245AE
:10331000414D20494D5520323030487A202D3E20F5
:103320004E52460D0A0000003EB500238DF80830CD
:10333000012402ABCDE9003402F01F020023FFF7A5
:10334000B7FD9DF808003EBD30B53F4904462DED60
:10335000028B87B0A1F59E70FEF7BCFF05461421D5
:1033600001A8FDF770F93949A1208DF8040008780B
:103370008DF80500401C0870CDF806400DB1002006
:1033800052E0314C9FED328A94ED000A20EE080A9B
:10339000BDEEC00A10EE100AFFF77AFDADF80A0084
:1033A00094ED010A20EE080ABDEEC00A10EE100AE4
:1033B000FFF76EFDADF80C0094ED020A20EE080A4E
:1033C000BDEEC00A10EE100AFFF762FDADF80E0068
:1033D00094ED030AB2EE048A20EE080ABDEEC00A9C
:1033E00010EE100AFFF754FDADF8100094ED040A3A
:1033F00020EE080ABDEEC00A10EE100AFFF748FDE5
:10340000ADF8120094ED050A20EE080ABDEEC00AE0
:1034100010EE100AFFF73CFDADF8140094F83200EE
:1034200000B1022040F00100ADF8160006490F205F
:1034300034310090142301AAA1F58E70FFF7D2F960
:1034400007B0BDEC028B30BD580100200000002009
:1034500000007A4403B583B000218DF80410491EA2
:103460000091012301AA04A9FEF742F910B100203E
:1034700005B000BD9DF80400FAE770B505460C469E
:103480000846FFF7FFFC002221462846FFF74CFFC5
:1034900020F0010040F0020300222146284600F0FF
:1034A00017F80220FDF7C4F921462846BDE8704010
:1034B000FFF780B810B50446FDF7A6F8214682B2A2
:1034C000BDE81040C8230148FEF7BEBB1001002034
:1034D0001FB582B001240023CDE9003402F01F02A1
:1034E00042F0200205ABFFF7E3FC06B010BD7CB54F
:1034F0000024069D02F01F0242F02002CDE90045A3
:10350000FFF7D6FC7CBD4FF04070E1EE100A70472B
:1035100044524F4E4500000000000000000102032D
:1035200004060708090000000001020304303132DC
:1035300033343536373839414243444546403058B4
:10354000003031323334353637383961626364657F
:103550006640307800040000080000000000000011
:103560000200010000100000883500080000002063
:103570001C000000D4010008A43500081C00002035
:1035800054090000F00100080000000000000000E5
:10359000000000000100000010000000000000001A
:0435A0000024F4000F
:040000050800019955
:00000001FF
