:020000040800F2
:100000002009002039020008DB210008F919000846
:10001000D92100088B0400083F2B000800000000D5
:10002000000000000000000000000000C9260008D9
:100030008D040008000000009D250008CB26000864
:10004000530200085302000853020008530200083C
:10005000530200085302000853020008530200082C
:10006000530200085302000853020008530200081C
:10007000530200085302000853020008530200080C
:100080005302000853020008530200080000000059
:100090000000000000000000000000005302000803
:1000A00053020008530200085302000853020008DC
:1000B00053020008530200085302000853020008CC
:1000C00053020008530200085302000853020008BC
:1000D0005302000853020008530200080000000009
:1000E00053020008530200085302000800000000F9
:1000F00000000000000000000000000053020008A3
:1001000000000000530200085302000853020008D8
:1001100000000000000000000000000000000000DF
:10012000530200085302000853020008530200085B
:100130005302000800000000000000000000000062
:100140000000000000000000000000005302000852
:10015000530200085302000853020008530200082B
:1001600053020008530200080000000000000000D5
:10017000000000000000000000000000000000007F
:100180000000000053020008000000000000000012
:10019000530200085302000800F002F800F03CF897
:1001A0000AA090E8000C82448344AAF10107DA45D2
:1001B00001D100F031F8AFF2090EBAE80F0013F0E8
:1001C000010F18BFFB1A43F0010318474833000022
:1001D00068330000103A24BF78C878C1FAD85207B3
:1001E00024BF30C830C144BF04680C6070470000B1
:1001F0000023002400250026103A28BF78C1FBD830
:10020000520728BF30C148BF0B6070471FB503F0CD
:100210006CF91FBD10B510BD00F002F91146FFF7D3
:10022000F5FF02F0FBFF00F020F903B4FFF7F2FF47
:1002300003BC00F023F90000094880470948004743
:10024000FEE7FEE7FEE7FEE7FEE7FEE7FEE7FEE786
:10025000FEE7FEE704480549054A064B70470000E3
:1002600061270008990100082003002020090020D0
:10027000200500202005002053EA020C00F06980D0
:100280002DE9F04B4FF00006002B1FBFB3FA83F5AA
:1002900003FA05F424FA05F65E4012BF1643B2FADB
:1002A00082F502FA05F4C5F120051EBF22FA05FC0D
:1002B00044EA0C04203556EA044C4FEA144418BFB3
:1002C000641C4FF000084FF00009904271EB030CE2
:1002D00039D3002919BFB1FA81F701FA07F6B0FA4C
:1002E00080F700FA07F6C7F120071EBF20FA07FCC7
:1002F00046EA0C062037B6FBF4FCA7EB0507103FD7
:1003000007F01F0BCBF120060CFA0BFB2CFA06F6BC
:1003100044BFB3460026202FA4BF5E464FF0000B1B
:100320005BEA060C08BF4FF0010B19EB0B09ABFBA6
:10033000027C48EB0608C01B06FB02CC0BFB03CC7F
:1003400071EB0C01C1E70B46024641464846BDE849
:10035000F08B13B54FF000004FF00001AFF30080B9
:10036000BDE81C40704710B5431C02E010F8011BAB
:1003700071B18107FAD14FF0013202C88C1A8C4357
:1003800014EAC211F9D0C01A0A0603D0C01E10BD6B
:10039000C01A10BD0A0401D0801E10BD0902FCD095
:1003A000401E10BD4FF0000200B51346944696461D
:1003B000203922BFA0E80C50A0E80C50B1F1200178
:1003C000BFF4F7AF090728BFA0E80C5048BF0CC026
:1003D0005DF804EB890028BF40F8042B08BF704784
:1003E00048BF20F8022B11F0804F18BF00F8012BF6
:1003F000704770477047704710B500F009F8006803
:1004000010BD10B5044600F003F8046010BD0000F4
:1004100000487047BC02002000487047BC02002022
:100420007546FFF7F9FFAE4605006946534620F0D2
:100430000700854618B020B5FFF70CFFBDE8204047
:100440004FF000064FF000074FF000084FF0000B90
:1004500021F00701AC46ACE8C009ACE8C009ACE843
:10046000C009ACE8C0098D46704710B50446AFF32B
:1004700000802046BDE81040FFF7D7BE0149182094
:10048000ABBEFEE7260002007047FEE770470000A3
:1004900070B5044600F004F90546601C02D004481B
:1004A0000078044400F0FCF8401BA042FAD370BD71
:1004B000380000202DE9F84FDFF8B8A10022012410
:1004C00003254FF00F090AF1040BAAF1040E00BF37
:1004D0000B6804FA02F63340B34273D10F7907F088
:1004E0000307012F01D0022F16D187684FEA420877
:1004F00005FA08FC27EA0C07D1F80CC00CFA08FC36
:100500004CEA070CC0F808C04768B7430E79C6F339
:10051000001696403E4346600E79F643B6070DD06E
:10052000C768560005FA06FC27EA0C07D1F808C090
:100530000CFA06FC4CEA070CC0F80CC00E7906F069
:100540000306022E10D1D60800EB8608D8F82060EA
:1005500057074FEAD76C09FA0CF7BE430F6907FA41
:100560000CF73743C8F8207006684FEA420C05FACA
:100570000CF7BE430F7907F0030707FA0CF7374370
:1005800007604E6816F4403F6DD03B4E376847F425
:1005900080473760366822F0030706F480460096ED
:1005A000364E07EB060CDCF8086897073F0F09FA90
:1005B00007F826EA0806DFF8C880404503D14FF067
:1005C00000081EE04FE0DFF8BC80404502D14FF04C
:1005D000010816E0DFF8B080404502D14FF0020874
:1005E0000FE0DFF8A880404502D14FF0030808E093
:1005F000DFF89C80404502D14FF0040801E04FF045
:10060000070808FA07F848EA0608CCF80888DAF874
:1006100000605746D1F804C09E435FEACC2C00D559
:100620001E433E60DBF800605F46D1F804C09E4385
:100630005FEA8C2C00D51E433E60DEF800607746F2
:10064000D1F804C09E435FEA8C3C00D51E433E6057
:10065000084F083F3E68D1F804C09E435FEACC3C97
:1006600000D51E433E60521C102AFFF431AFBDE896
:10067000F88F0000083C014044380240003001403F
:10068000000002400004024000080240000C02404A
:10069000001002400AB1816170470904FBE70000C5
:1006A00001488068704700003800002070B50400E1
:1006B00025D094F83D00002520B984F83C50204610
:1006C00000F052FA242084F83D002068016821F0EF
:1006D000010101602068016841F400410160206867
:1006E000016821F40041016000F098FB4D4A616807
:1006F000914201D84C4900E04C49884201D2012086
:1007000070BD4B492368B0FBF1F15E6826F03F06EF
:100710000E435E606368934206D94FF49673594363
:100720004FF47A73B1FBF3F12368491C1E6A26F07B
:100730003F06314319626168914210D84900401E5A
:10074000B0FBF1F2521CC2F30B02042A01D20420C6
:1007500022E0B0FBF1F0401CC0F30B001CE0A268EB
:10076000F2B301EBC10303EB0116431EB3FBF6F337
:100770005B1C43F480431B0549D092B301EBC102DB
:1007800002EB0111401EB0FBF1F0401CC0F30B0066
:1007900040F4804040F400402168CA694CF6FF7381
:1007A0009A431043C861D4E90710014320680268E6
:1007B00022F0C00211430160D4E903010143206823
:1007C000826848F2FF339A4311438160D4E90501FE
:1007D00008432168CA6822F0FF021043C86001E0A4
:1007E0000EE016E02068016841F001010160256417
:1007F000202084F83D00256384F83E50002070BD21
:1008000001EB4106431EB3FBF6F35B1CB3E701208B
:10081000C2E701EB4101401EB0FBF1F0401CC0F308
:100820000B00B7E7A086010080841E0000093D0090
:1008300040420F002DE9FF4F83B09A46DDE9118752
:1008400093460446DDF84090FFF72AFF054694F8EA
:100850003D00202870D119230122744920460095BB
:1008600001F0E0F90028F5D194F83C00012863D0AC
:10087000012084F83C0020680168C90703D10168A1
:1008800041F0010101602068016821F4006101600C
:10089000222084F83D00402084F83E000026266493
:1008A000C4F82490A4F82A80608D20856048E06216
:1008B000CDE9007553465A462046049901F0B4F834
:1008C000002879D1208DD0B1012821D002282068BC
:1008D00024D0416980690090208D032866D80128C2
:1008E0002BD0544902283B464FF00002009557D0C8
:1008F0008846204601F096F900285DD13AE020684C
:10090000416981690091016841F4007101607DE0F5
:100910002068016821F480610160F0E7016821F43A
:10092000806101602068016841F400610160206815
:1009300041698069009069E075E02A4639462046A1
:1009400001F016FA88BB54E02068016841F4007198
:10095000016020680069616A0870606A401C60621A
:10096000218D491E2185618D491E61852168096996
:10097000017042E02068016821F480610160206814
:100980000069616A0870606A401C6062208D401EC8
:100990002085608D401E60853B46002241460095C3
:1009A000204601F03FF900B9CEE705E02A46394676
:1009B000204601F0DDF918B1012007B0BDE8F08F45
:1009C00020680069616A0870606A401C6062208D5E
:1009D000401E81B22185608D401E6085206842697D
:1009E000D243520712D4032903D1016821F4806154
:1009F000016020680069616A0870606A401C60627A
:100A0000208D401E2085608D401E6085208D002831
:100A10007FF462AF202084F83D0084F83E6084F8C3
:100A20003C600020C9E70220C7E700000200100078
:100A30000000FFFF040001002DE9FF4F83B09A463C
:100A4000DDE9119793460446DDF84080FFF728FE64
:100A5000054694F83D0020287FD119230122404902
:100A60002046009501F0DEF8002876D194F83C008D
:100A7000012872D0012084F83C0020680168C90771
:100A800003D1016841F0010101602068016821F48F
:100A900000610160212084F83D00402084F83E0080
:100AA00000262664C4F82480A4F82A90608D20854E
:100AB0002C48E062CDE9007553465A462046049919
:100AC00001F030F870B930E02A463946204601F08E
:100AD00087F958B1206C042804D12068016841F4DA
:100AE00000710160012007B0BDE8F08F606A2168E5
:100AF00000780861606A401C6062218D491E89B2DD
:100B00002185628D521E628522685369DB435B0733
:100B10000BD469B100781061606A401C6062208D5E
:100B2000401E2085608D401E6085208D0028CBD121
:100B30002A463946204601F049F80028CAD154F81F
:100B40003D0B016841F400710160202004F81E098A
:100B5000E67766770020C6E7FFE70220C3E70000DC
:100B6000020010000000FFFF10B586B004461421FB
:100B70006846FFF717FC13492068884220D11248C5
:100B80000021026842F002020260006800F00200E8
:100B90000590C02000901220CDE9010103200390B0
:100BA0000420049069460948FFF784FC0648103089
:100BB000016841F400110160006800F40010059024
:100BC00006B010BD0054004030380240000402401E
:100BD0000248816802781144816070473800002023
:100BE0000B4810B5016841F400710160016841F4DF
:100BF00080610160016841F480710160032000F0B0
:100C000061F80F2000F006F800F024F8002010BD75
:100C1000003C024070B50D4D04464FF47A712878BF
:100C2000B1FBF0F00A490968B1FBF0F000F088FC74
:100C300048B9102C07D200222146501E00F022F89D
:100C400000206C6070BD012070BD000038000020E5
:100C5000440000200A4808B5016841F48041016061
:100C6000006800F4804000900548001F016841F0D2
:100C700080510160006800F08050009008BD0000C5
:100C800044380240F0B40E4B1B680C46C3F30223F9
:100C9000C3F10705042D00D90425191D072901D228
:100CA000002300E0DB1E012606FA05F1491E214063
:100CB00099409E40761E16403143F0BC01F040BF83
:100CC0000CED00E0064900F0070208684FF6FF034C
:100CD000184040EA0220034A1043086070470000B1
:100CE0000CED00E00000FA052DE9F0470E46050086
:100CF00065D0DFF81481D8F80000F7B200F00700E3
:100D0000B04207D288F80070D8F8000000F0070061
:100D1000B04254D128683D4C810712D5400703D515
:100D2000206840F4E05020602878000703D5206850
:100D300040F4604020602068A96820F0F00008437B
:100D400020602878C0072DD030496868083901280C
:100D500012D0022813D0032811D00968890700296E
:100D60002DDA216821F0030101432160FFF798FC8F
:100D7000814641F2883A0EE009688903EFE7096885
:100D80008901ECE7FFF78CFCA0EB0901514502D982
:100D90000320BDE8F0872068696800F00C00B0EB24
:100DA000810FEFD1D8F80010404601F00701B142A1
:100DB00007D90770006800F00700B04201D0012099
:100DC000E7E72878400705D52068E96820F4E05077
:100DD000084320602878000706D52068296920F498
:100DE000604040EAC100206000F038F82168084AFD
:100DF000C1F30311515CC840064908600648006809
:100E0000FFF708FF0020C4E7003C0240083802401A
:100E1000F9340008440000203C0000200448054943
:100E200000680968044AC1F38221515CC8407047D8
:100E300044000020083802400935000804480549EC
:100E400000680968044AC1F34231515CC8407047E8
:100E5000440000200838024009350008154810B544
:100E6000006810F00C02144813D01449042A0FD063
:100E7000082A0ED10F4C241F2268236802F03F027B
:100E80005B0207D52068C0F38810A0FB010106E0D3
:100E9000084610BD2168C1F38811A1FB00010023A1
:100EA000FFF7EAF92168C1F30141491C4900B0FB91
:100EB000F1F010BD083802400024F40040787D01B4
:100EC0002DE9F84F04006ED02078DFF84C93C0076E
:100ED000A9F104054AD009F104000168C1F38101B8
:100EE000012908D00068C0F3810002280AD1D9F88E
:100EF0000000400206D52868800337D560680028C6
:100F0000E1D033E06068B0F5803F10D0B0F5A02F9D
:100F1000286810D020F480302860286820F48020D1
:100F200028606068A8B1FFF7BBFB06460DE02868A3
:100F300040F48030F4E740F480202860F7E700BFF9
:100F4000FFF7AEFB801B642873D828688003F7D5B1
:100F50000CE0FFF7A5FB064605E000BFFFF7A0FB8E
:100F6000801B6428F0D828688003F7D42078DFF845
:100F7000AC8280074FF0000A3ED5A748001D0168EB
:100F800011F00C0F08D00068C0F3810002280BD1CB
:100F9000D9F80000400207D42868800716D5E06819
:100FA000012800D112E033E1E068B8B10120C8F8AF
:100FB0000000FFF775FB064605E000BFFFF770FB7A
:100FC000801B0228C0D828688007F7D528682169C7
:100FD00020F0F80040EAC10028600DE0C8F800A049
:100FE000FFF75EFB064604E0FFF75AFB801B022872
:100FF0001FD828688007F7D42078000722D5864FAD
:1010000087486169703771B101210160FFF748FBC2
:10101000064604E0FFF744FB801B022809D8386825
:101020008007F7D50EE0C0F800A0FFF739FB0646B1
:1010300005E082E0FFF734FB801B02287DD838688A
:101040008007F7D42078400768D5DFF8CCB10027B7
:101050000BF13C0BDBF80000C0000BD4DBF80010F8
:1010600041F08051CBF80010DBF80000012700F0C0
:10107000805000906B4E3068C00510D4306840F44A
:1010800080703060FFF70CFB009005E0FFF708FB75
:101090000099401A022850D83068C005F6D55E4E37
:1010A000A0686C3601280FD00528306810D020F0D9
:1010B00001003060306820F004003060A068B8B1F2
:1010C000FFF7EEFA00900FE0306840F00100F4E71F
:1010D00040F004003060F7E7FFF7E2FA0099411AA8
:1010E00041F28830814266D830688007F4D50EE03E
:1010F000FFF7D6FA009007E0FFF7D2FA0099411AFD
:1011000041F28830814256D830688007F4D42FB13C
:10111000DBF8001021F08051CBF80010A069C8B3B3
:101120003D49091D0968C1F3810102294AD00228FD
:10113000504607D0C8F8600000E03CE0FFF7B0FA86
:1011400004463BE04746C8F86000FFF7A9FA0646A8
:1011500005E000BFFFF7A4FA801B02282BD82868FF
:101160008001F7D4D4E907010843A16A2E4A49084F
:1011700002EB0141626A41EA8211084394F82C10A3
:1011800040EA0161C9F8001001203866FFF788FACB
:10119000044606E03EE000BFFFF782FA001B02288B
:1011A00009D828688001F7D534E000BFFFF778FA46
:1011B000001B022802D90320BDE8F88F28688001AF
:1011C000F4D427E00128F7D0D9F80000E26900F450
:1011D000800191421CD1226A00F03F01914217D157
:1011E00047F6C071626A0140B1EB821F10D1A26A5A
:1011F0004FF0FF3300F4403103EB5202B1EB024FEA
:1012000006D194F82C1000F07060B0EB016F01D0A3
:101210000120D1E70020CFE7043802400000474218
:10122000800E4742007000400000FFFF70B50400D0
:1012300009D0606A002540B125616561A56294F816
:10124000510040B10CE0012070BD6068B0F5827FB4
:10125000F4D0E561F2E784F85050204600F044F8FD
:10126000022084F851002068016821F040010160EB
:10127000A088218900F4827001F404410843A18907
:1012800001F400610843217C01F002010843217D43
:1012900001F001010843218B01F400710843217F13
:1012A00001F03801084394F8201001F08001084350
:1012B000218D01F40051084321680860A0690421D0
:1012C00001EA104094F8241001F01001084321684D
:1012D00048602068C16921F40061C1616565012031
:1012E00084F85100002070BD10B586B0044614216A
:1012F0006846FFF757F813492068884220D1124802
:101300000021026842F480520260006800F48050BC
:1013100005900D481438026842F00102026000682E
:1013200000F001000590E02000900220CDE90101CD
:10133000032003900520049069460448FFF7BAF89B
:1013400006B010BD003001404438024000000240A9
:101350002DE9FF4F81B01D46934604464FF0010929
:101360000E9EFFF79DF9074694F851006168012829
:1013700006D0B1F5827F3CD1A168C9BB042838D121
:101380000298002871D0BBF1000FFBD0002DF9D0DE
:1013900094F8500001282CD04FF0010A84F850A096
:1013A00094F85100042802D0052084F851004FF031
:1013B0000008C4F85480C4F838B0E587A5870299BE
:1013C0002163E586A586C4F84080C4F8448020687F
:1013D0000168490603D4016841F040010160E068FA
:1013E000B0F5006F606808D0F0B3012D49D081E0FE
:1013F000FFE7022005B0BDE8F08F08B1012D39D11B
:10140000206B21680088C860206B801C2063E08E00
:10141000401EE0862EE02068816889070FD5E18EA6
:1014200069B1B9F1010F0AD1216B0988C160206B44
:10143000801C2063E08E401EE0864FF0000920688B
:101440008168C9070CD0E18F51B1C068A16B0880D9
:10145000A06B801CA063E08F401EE0874FF0010965
:10146000FFF71EF9C01B01E00BE067E0B04201D3BB
:10147000701C50D1E08E0028CDD1E08F0028CAD159
:101480003EE0206B216800780873206B401C2063CD
:10149000E08E401EE0862DE02068816889070FD528
:1014A000E18E69B1B9F1010F0AD1216B097801739D
:1014B000206B401C2063E08E401EE0864FF0000948
:1014C00020688168C9070CD0E18F51B1C068A16B59
:1014D0000870A06B401CA063E08F401EE0874FF0B7
:1014E0000109FFF7DDF8C01BB04202D3701C01D028
:1014F00011E086B1E08E0028CED1E08F0028CBD15C
:101500003A463146204601F04BF850B12020606544
:1015100084F8508012E084F851A084F850800320B1
:1015200068E7A06818B92068C1688068009084F8EE
:1015300051A084F85080606D0028F1D0012059E757
:1015400010B5401EB0F1807F01D3012010BD4FF0D7
:10155000E02460610F21601701F0F2FA0020A06121
:1015600007202061002010BD10B590F83C20012A12
:1015700022D0012280F83C20CA688C6822F4407294
:1015800022434C6822F4806222430C6822F40062F9
:1015900022430C6922F4805222434C6922F4005207
:1015A0002243C969002322F480420A4301684A6445
:1015B00080F83C30002010BD022010BD70B590F8BE
:1015C0003C20012A2CD0012480F83C40022280F8E3
:1015D0003D2003685A689D6822F070060A6832430D
:1015E0005A60104B02689A420ED0B2F1804F0BD075
:1015F0000D4B9A4208D00D4B9A4205D00C4B9A42A3
:1016000002D00C4B9A4204D1496825F0800319435B
:10161000916080F83D40002180F83C10084670BD84
:10162000022070BD0000014000040040000800409E
:10163000000C00400040014010B586B00446142163
:101640006846FEF7AFFE0E492068884216D10D4865
:101650000021026842F001020260006800F001000F
:1016600005904FF4706000900220CDE90101012047
:10167000CDE9031069460448FEF71CFF06B010BD13
:1016800000000140303802400000024070B50446BE
:1016900090F83C0000260D4601280FD0012084F868
:1016A0003C006AB1042A1DD0082A2FD00C2A3FD052
:1016B0000126002084F83C00304670BD022070BD39
:1016C000206801F0B3F82068816941F00801816168
:1016D0002068816921F004018161206881692A699B
:1016E000114311E0206801F0C9F82068816941F4D4
:1016F000006181612068816921F4806181612068D5
:1017000081692A6941EA02218161D2E7206801F0FA
:10171000E1F82068C16941F00801C1612068C16930
:1017200021F00401C1612068C1692A69114311E0F7
:10173000206801F0FBF82068C16941F40061C161D3
:101740002068C16921F48061C1612068C1692A698A
:1017500041EA0221C161ACE710B5040003D094F85E
:101760003D0010B107E0012010BD002084F83C00CE
:10177000204600F01FF8022084F83D00211D20685B
:1017800000F0F6FF012084F8460084F83E0084F85B
:101790003F0084F8400084F8410084F8420084F857
:1017A000430084F8440084F8450084F83D0000209C
:1017B00010BD000008B500680649884208D10648F7
:1017C000016841F001010160006800F00100009033
:1017D00008BD0000000001404438024010B5044636
:1017E000022249B104290ED0082913D094F84100EF
:1017F000012816D0012010BD94F83E000128F9D12F
:1018000084F83E200FE094F83F000128F2D184F8DC
:101810003F2008E094F840000128EBD184F84020F4
:1018200001E084F841200122206800F0F1FF124914
:101830002068884203D1426C42F40042426420682E
:1018400088420ED0B0F1804F0BD00C49884208D0AE
:101850000B49884205D00B49884202D00A49884288
:1018600004D1816801F00701062903D0016841F025
:1018700001010160002010BD000001400004004093
:1018800000080040000C00400040014070B504001A
:1018900004D094F84100002510B106E0012070BD8D
:1018A00084F84050204600F023F8242084F84100BA
:1018B0002068C16821F40051C160204601F080F821
:1018C0002068016921F4904101612068416921F09B
:1018D0002A0141612068C16841F40051C16065641A
:1018E000202084F8410084F842006563002070BD28
:1018F00010B586B0044614216846FEF753FD13491F
:101900002068884220D112480021026842F4003247
:101910000260006800F4003005900D48103802683D
:1019200042F001020260006800F0010005900C2006
:1019300000900220CDE901010320039007200490CC
:1019400069460448FEF7B6FD06B010BD00440040ED
:1019500040380240000002402DE9F843044690F868
:101960004100984616460D46202802D00220BDE8C8
:10197000F88385B17EB100206064212084F84100A5
:10198000FEF78EFEA6848146E684A0682027B0F587
:10199000805F02D003E00120E9E7206910B12E4604
:1019A00000250EE000260CE08021204601F08EF894
:1019B000A8B9C6B116F8010B21684860E08C401E3A
:1019C000E084E08C4B464FF00002CDF80080002808
:1019D000EAD14FF04001204601F078F840B184F898
:1019E00041700320C3E735F8020BC0F30800E3E7BA
:1019F00084F841700020BAE7FEE701684A69D243E3
:101A000052050FD46FF480624A61002140F8301F04
:101A1000202242738173026942F004020261017361
:101A200001207047002070472DE9F84F04460068F8
:101A300089460B9D01689846174641F48061016014
:101A40002068016841F48071016000954FF0011B2E
:101A50000022594620460A9B00F0E4F84FF4007A31
:101A600040B120680068C00501D5C4F840A003203B
:101A7000BDE8F88F216809F0FE0008612B4628496F
:101A800020460A9A00F016F9F0BB20684169806987
:101A900000902A4620460A9900F0A2F940B1206C35
:101AA00004283AD12068016841F40071016034E0F3
:101AB000FEB2B8F1010F09D02168380A08612A4640
:101AC00020460A9900F08CF90028E8D120680661C8
:101AD0002A4620460A9900F083F90028DFD12068C1
:101AE000016841F48071016000950022594620464A
:101AF0000A9B00F097F80028B3D1216809F0FF0095
:101B000040F00100086100E007E02B460449204650
:101B10000A9A00F0CFF80028AAD00120A8E7000018
:101B2000020001002DE9F843044600680D46DDE996
:101B3000089701689846164641F4807101604B464B
:101B400000224FF001112046009700F06BF848B1D9
:101B500020680068C00502D54FF40070206403209F
:101B6000BDE8F883216805F0FE0008613B464A465F
:101B70001549204600F09EF888B9206841698069BF
:101B800000903A464946204600F02AF948B1206CB8
:101B9000042804D12068016841F40071016001202B
:101BA000DEE7F5B2B8F1010F09D02168300A08610B
:101BB0003A464946204600F013F90028E7D120684C
:101BC00005610020CCE700000200010070B5164658
:101BD0000D4604461EE02046FFF70FFF08B1012026
:101BE00070BD681C16D0FEF75BFD801BA84200D8B4
:101BF00085B920684069C04340070BD5002044F8F0
:101C0000300F20216173A073216941F0200121610F
:101C10002073E4E720684069C0434007DBD400201C
:101C200070BD00002DE9F047984617460D46044662
:101C3000C1F30746DDF820902AE000BFB8F1FF3F6E
:101C400026D0FEF72DFDA0EB0901414502D8B8F1E1
:101C5000000F1DD12068012E16D0806925EA0000F2
:101C60000004000C12D00020B84211D1002044F82A
:101C7000300F20216173A073216941F0200121619F
:101C800020730120BDE8F0874069E7E70120EBE71A
:101C90002068012E0AD0806925EA00000004000CAB
:101CA00006D00020B842C9D00020EBE74069F3E736
:101CB0000120F7E72DE9F047984616460D46044601
:101CC0004FF000094FF0200AC1F3074723E02068D6
:101CD0004069C043400515D42068016841F4007193
:101CE000016021686FF480604861C4F8309084F826
:101CF0003DA084F83E90216C41F00401216484F8F9
:101D00003C9021E0701C06D0FEF7CAFCA0EB080056
:101D1000B04203D816B1012F1FD021E02068012F57
:101D200015D0806925EA00000004000C18D000BF1F
:101D300044F8309F84F80DA084F80E90216941F09A
:101D40002001216184F80C900120BDE8F0874069F2
:101D500025EA00000004000CEAD12068406901E097
:101D60002068806925EA00000004000CAFD1ECE790
:101D70002DE9F041002590460E460446202728E034
:101D80004069C043C0060CD454F8301B6FF01000FB
:101D9000486144F810596777A577206A2062257753
:101DA00014E0FEF77DFCA0EB0800B04200D886B935
:101DB00020684069C04340060BD544F8305F677324
:101DC000A573206940F02000206125730120BDE843
:101DD000F08120684169C9434906D1D40020F6E763
:101DE00070B516460D4604461EE02046FFF705FE78
:101DF00008B1012070BD681C16D0FEF751FC801B95
:101E0000A84200D885B920684069C04300060BD5B8
:101E1000002044F8300F20216173A073216941F044
:101E2000200121612073E4E720684069C043000677
:101E3000DBD4002070BD7CB50C46050011D084B108
:101E400034212046FEF7AEFA00208DF8040001266A
:101E500001AB7522D0212846009601F0A1F910B1FE
:101E600007E004207CBD9DF80420712A0AD0702A66
:101E700008D001AB7522D2212846009601F090F9D6
:101E800010B107E0D02108E09DF80420712A03D0AA
:101E9000702A01D002207CBDD22184F8312084F840
:101EA000301001236B22284601F097F910BB322035
:101EB000FEF7EEFA94F8301003231A22284601F0B8
:101EC0008CF9B8B994F8301009231922284601F08A
:101ED00084F978B994F8301000231B22284601F0C9
:101EE0007CF938B994F8301000231C22284601F000
:101EF00074F908B101207CBD01F0B8F800207CBD68
:101F000070B50C462DED048B8EB070B16CB10E2106
:101F1000009194F8301004AB3B2201F041F930B14C
:101F200001200EB0BDEC048B70BD0420F9E7BDF8B4
:101F30001000BDF8182040BA52BA06B213B2BDF86C
:101F40001200BDF81A2040BA52BA01B215B2BDF85B
:101F50001400BDF81C2040BA52BA00B212B29FED74
:101F60003B0A01EE106ADFED3A0AB8EEC11A61EEE3
:101F7000003A01EE101AB8EEC11A21EE002A01EE65
:101F8000100AB8EEC11A61EE002A00EE103AB8EE5F
:101F9000C00A20EE201A00EE105AB8EEC00A60EE19
:101FA000201A00EE102AB8EEC00A20EE203A94ED76
:101FB000060A33EEC09A94ED070A72EE408A94ED59
:101FC000080A32EEC08A94ED090A31EE400A8DED1E
:101FD000010AD4ED0A0A71EEE00ACDED020A94ED91
:101FE0000B1A33EE411A8DED031A01F01BF803AA08
:101FF00002A901A800F0CAFF84ED009AC4ED018A8D
:1020000084ED028A9DED010A84ED030A9DED020A2A
:1020100084ED040A9DED030A84ED050A29EE090A00
:1020200008EEA80A08EE080A00F09AFD10EE100A61
:102030006FF07C5108440749884201D2012000E03A
:10204000002084F8320000206BE700000000803898
:102050002D23FA3BFFFFBF0030B587B0142168463F
:10206000FEF7A0F914480024016841F00101016065
:10207000016801F001010591016841F00201016070
:1020800000680E4D00F0020005902246012128460E
:10209000FEF700FB012202212846FEF7FBFA03218E
:1020A0000120CDE90010CDE9024169462846FEF73E
:1020B00001FA07B030BD0000303802400004024091
:1020C0000F4810B50D4901604FF482714160002145
:1020D0008160C1604FF400720161C0E905122822DD
:1020E000C0E90721416281620A21C162FFF79EF8BF
:1020F000002801D072B6FEE710BD0000003001409C
:102100009C00002010B592B000240F941C2168465A
:102110001094FEF747F9202107A8FEF743F92D4850
:102120002B4901605321C0E9011444F61F61C0E945
:10213000031444618461FFF70FFB08B172B6FEE738
:102140000F940FA923481094FFF738FA08B172B61C
:10215000FEE7602000904FF47A70CDE9010403940B
:1021600004940594002269461A480694FFF78EFAF3
:1021700008B172B6FEE7042269461648FFF786FAF0
:1021800008B172B6FEE7082269461248FFF77EFAE8
:1021900008B172B6FEE70C2269460E48FFF776FAE0
:1021A00008B172B6FEE70794089409944FF4005002
:1021B0000A94CDE90B4007A906480E94FFF7D4F91D
:1021C00008B172B6FEE70348FFF736FA12B010BD49
:1021D00000000140F4000020FEE7FEE710B51722E2
:1021E00001F01AF940F30000401C10BD70230722D3
:1021F00001F060B92DE9F8431646DDE908890C467F
:10220000050012D08CB186B11F46052201F052F9AB
:10221000E774474606222146284601F0FDF820F0E3
:1022200028032FB1022F06D007E00420BDE8F88371
:1022300043F0200301E043F008030622214628462C
:1022400001F038F94F4606222146284601F0E4F80D
:1022500020F0060377B1012F04D0022F05D0032F01
:1022600008D105E043F0020304E043F0040301E079
:1022700043F0060306222146284601F01BF90022FE
:102280002146284601F0C8F840F00C030022214600
:10229000284601F00FF90F2305272846214667F34A
:1022A0001F13042201F006F94FF0010821462846C9
:1022B00000F073FC1D222146284601F0ADF840F0E5
:1022C00004031D222146284601F0F4F843461C224F
:1022D0002146284601F0EEF82146284600F05DFC34
:1022E0001D222146284601F097F840F002031D22E6
:1022F0002146284601F0DEF83068C4F80E00307937
:10230000A0743346102221462846009701F0E1F8D8
:1023100033460A2221462846009701F0DAF8214682
:10232000284601F09CF82146284600F006F8214690
:102330002846FFF75BFF002078E71CB500220092DB
:1023400013460192E22200F0E7FD1CBD1CB50022FD
:10235000009213460192E12200F0DEFD1CBD70B533
:1023600005000C4633D08CB3206878B3A06868B3FE
:10237000084600F0F6FD204600F0B0FD0520FEF70F
:1023800087F801231A462146284601F093F80123D5
:1023900002222146284601F08DF80C230022214616
:1023A000284601F087F821462846FFF71FFF2146FF
:1023B0002846FFF7CBFF21462846FFF7BEFF214600
:1023C000284600F008F820B1002070BDFFE7042087
:1023D000FBE70520F9E72DE9F0410E46804605228E
:1023E00001F01AF880F02A0504462B4605223146F2
:1023F000404601F05FF805223146404601F00CF8F6
:102400000746234605223146404601F053F8BD42B7
:1024100002D10120BDE8F0810020FBE7FEB51C469B
:1024200015000E4607461CD0DCB100208DF80800D0
:10243000012102A8CDE9000100236022314638467F
:1024400000F06AFD9DF8080008B120280BD931463C
:102450003846FFF772FF402307223146384601F025
:1024600029F80020FEBDA04201D98DF808409DF852
:1024700008000023CDE9005061223146384600F0C3
:102480004BFD402307223146384601F013F89DF8F2
:102490000800FEBD2DE9FC471D46DDF828901746D3
:1024A0000C46060004D01CB117B10DB1202D02D985
:1024B0000420BDE8FC8700F0D2FF21463046FFF73C
:1024C00095FE4FF00008CDE900853B46A02221464D
:1024D000304600F021FDA18801222068FEF7DAF8DD
:1024E0004FF4AF71CDF8008000BF0098401C009001
:1024F0008842F9DB204600F0F1FCFEF7D1F80746F0
:102500001DE0204600F032FDFF21304600F094FF30
:102510000546204600F025FDA90607D52023072201
:102520002146304600F0C6FF0020C2E7E80606D587
:10253000102307222146304600F0BCFF04E0FEF7DE
:10254000AFF8C11B4945DCD321463046FFF7FEFEFC
:102550000620AEE72DE9F8438046DDE90A40DDE9D3
:1025600008650F460CB100212170009039464046A5
:10257000FFF790FF00280FD16EB165B13946404694
:10258000FFF72CFE38B12B46324639464046FFF75E
:1025900045FF04B120700020BDE8F88370470000BB
:1025A000F8B515460E460B4600920446012202215C
:1025B00000F02CF8A0B9134813490068B0FBF1F003
:1025C0004FF47A71484300906068B0F5827F0DD176
:1025D0003346002280212046009500F017F870B1A4
:1025E000606D40F0200060650320F8BD009830B1B8
:1025F000401E009020688068C0430006F6D5002089
:10260000F8BD00004400002000366E012DE9F843BB
:102610001E46914688460446089DFEF741F8401B39
:10262000351AFEF73DF8074626480068C0F3CB3060
:1026300068430AE0701C09D0FEF732F8C01BA842BC
:102640000FD275B10098B8B3401E00902068816821
:1026500038EA010033D000214945EBD10020BDE824
:10266000F8832068416821F0E00141606068B0F5BE
:10267000827F0BD1A068B0F5004F02D0B0F5806F1B
:1026800004D12068016821F040010160A06AB0F522
:10269000005F09D12068016821F4005101602068C1
:1026A000016841F400510160012084F851000020CC
:1026B00084F850000320D2E7FFE70025C6E7012198
:1026C000CAE70000440000207047FEF781BA00000E
:1026D00030B593B030216846FDF764FE14210CA894
:1026E000FDF760FE1C480024016841F08051016044
:1026F000006800F0805011901848016841F4404192
:1027000001600068022500F4404011900120039010
:1027100010200490009506950820CDE9074054202C
:10272000CDE9090504200B906846FEF7C9FB08B106
:1027300072B6FEE70F20CDE90C054FF48050CDE9CD
:102740000E4002210CA81094FEF7CEFA002801D00A
:1027500072B6FEE713B030BD403802400070004052
:102760000248016841F470010160704788ED00E0A3
:10277000F0B502681F4B204C204D214E4FF0804C8D
:10278000984207D0604505D0A04203D0A84201D0AE
:10279000B04203D122F070074A683A43984210D001
:1027A00060450ED0A0420CD0A8420AD0B04208D05A
:1027B000144CA04205D0144CA04202D0134CA042AD
:1027C00003D122F44074CA6822434C6922F080028B
:1027D00022438C68C4620C688462984201D1096902
:1027E0000163016841F0040101600121416102605F
:1027F000F0BD00000000014000040040000800405F
:10280000000C0040004001400044014000480140ED
:1028100010B501F01F030121046A99408C43046242
:10282000016A9A401143016210BD000030B5036A8D
:10283000026A22F0010202624268846924F0730590
:102840000C682C4323F002058B682B430A4DA842E9
:102850000BD123F00805CB6822F440722B434D695D
:1028600023F0040315438A692A434260846149685E
:102870004163036230BD00000000014030B5026AD0
:10288000036A23F010030362436884690D6824F42B
:10289000E64444EA05248D6822F0200242EA05124B
:1028A0000B4DA8420ED1CD6822F0800242EA0512FB
:1028B0004D6923F4406343EA85038D6922F04002A9
:1028C00043EA85034360846149688163026230BDE5
:1028D0000000014030B5036A026A22F4807202628D
:1028E0004268C46923F4007324F073050C682C4318
:1028F0008D6843EA05230C4DA8420ED1CD6823F420
:10290000006343EA05234D6922F4405242EA05126E
:102910008D6923F4806342EA05124260C46149680C
:10292000C163036230BD00000000014030B5046A9D
:10293000026A22F4805202624268C3690D6823F47D
:10294000E64343EA05238D6824F4005444EA053441
:10295000064DA84204D14D6922F4804242EA851214
:102960004260C36149680164046230BD00000140F7
:1029700001680C3151E8002F22F4907241E80023E5
:10298000002BF5D10168143151E8002F22F001022B
:1029900041E80023002BF5D1016B012909D1016821
:1029A0000C3151E8002F22F0100241E80023002BE7
:1029B000F5D1202180F8421000210163704700000A
:1029C00070B5044600680169E26821F44051114382
:1029D00001612169A068E269084361691143084304
:1029E0002168CA6849F20C639A430243CA602068AE
:1029F0004169A26921F44071114341613149206864
:102A0000884202D03049884202D1FEF717FA01E02D
:102A1000FEF704FAE2690023192164253226B2F593
:102A2000004F626828D0A0FB0101930F9200FDF7D0
:102A300023FC0146B0FBF5F06FF01802504301EBA8
:102A4000800006EB0010B0FBF5F000F0F002B1FBE7
:102A5000F5F002EB0012B1FBF5F06FF018035843EC
:102A600001EB800006EB0010B0FBF5F000F00F006A
:102A700021681044886070BDA0FB010192185B4181
:102A8000FDF7FAFB0146B0FBF5F00201B1FBF5F0F2
:102A90006FF01803584301EB800006EBC000B0FB59
:102AA000F5F000F0F80002EB4002B1FBF5F05843FE
:102AB00001EB800006EBC000B0FBF5F000F0070072
:102AC000D6E7000000100140001401402DE9F84352
:102AD000984617460D460446089E24E0701C22D0F6
:102AE000FDF7DEFDA0EB0800B0421AD8CEB1206899
:102AF000C168490717D5802D15D0402D13D0016826
:102B0000C94309070FD4016800254068009020469A
:102B1000FFF72EFF0820606484F840500120BDE8D4
:102B2000F8830320FBE72068006835EA000004D042
:102B30000020B842D2D00020F1E70120F9E7FEE7FB
:102B40000907090E002804DB00F1E02080F80014DA
:102B5000704700F00F0000F1E02080F8141D70476E
:102B600010B52DED028BB1EEC08A18EE100A20F0E0
:102B70000040C0F1FF40C00F0AD010EE100A20F054
:102B80000040C0F1FF40C00F04BF0120FDF739FC39
:102B9000B0EE480ABDEC028B10BD0EB573228DF865
:102BA000082001230022CDE9002302AB502200F0CF
:102BB000B3F90EBD70B504462DED028B8EB0182111
:102BC00004A8FDF7EFFB544DA1208DF81000A97863
:102BD0008DF81110491CA970CDF8124028780024F6
:102BE000E8B36879D8BB4D49A1F59E70FFF788F925
:102BF000A8BB4A4E96ED000A9FED498A20EE080ACE
:102C0000BDEEC00A10EE100A00F06EF9ADF8160025
:102C100096ED010A20EE080ABDEEC00A10EE100A79
:102C200000F062F9ADF8180096ED020A20EE080AED
:102C3000BDEEC00A10EE100A00F056F9ADF81A0009
:102C400096ED030AB2EE048A20EE080ABDEEC00A31
:102C500010EE100A00F048F9ADF81C0000E01CE08E
:102C600096ED040A20EE080ABDEEC00A10EE100A26
:102C700000F03AF9ADF81E0096ED050A20EE080ABC
:102C8000BDEEC00A10EE100A00F02EF9ADF82000DB
:102C900096F83200012400B10324687808B144F0AA
:102CA0000404687908B144F00804287808B144F0B5
:102CB0001004FDF7F5FCE968401A43F698218842B4
:102CC00001D944F02004ADF82240E8788DF82400C2
:102CD00028798DF8250000208DF834000F230DAAE7
:102CE0000B210AA88DE80F000C491623343104AAE1
:102CF000A1F58E70FFF72EFC9DF834000B2806D14D
:102D00009DF82800B12802D10AA800F0D3F90EB02E
:102D1000BDEC028B70BD000000000020840100208B
:102D200000007A442DE9F04F684985B04A79002ABD
:102D30007DD08A6A801A7AD4521D8A6289464FF001
:102D4000060803A9DFF888A1CDE9001864270297D7
:102D50009AF8301001234322AAF59E70FDF76AFD10
:102D60004FF0000B002862D1BDF80C0003A940BA57
:102D700006B2BDF80E00CDE9001840BA05B2BDF8A4
:102D80001000029740BA04B2D0469AF830100123DE
:102D90003B22AAF59E70FDF74DFD002847D1BDF8F6
:102DA0000C00D9F8102040BA0FFA80FCBDF80E00D4
:102DB000324440BA07B2BDF81000C9F81020D9F863
:102DC000143040BA2B44C9F81430D9F8185001B265
:102DD0002C44C9F81840D9F81C5048466544C9F835
:102DE0001C50D9F820603E44C9F82060D9F82470FE
:102DF0000F4447624189491C89B24181B0F808C03B
:102E000061455FD300EE102AB8EEC01A00EE101A2A
:102E1000B8EE400AC1EE000A9FED2E0A80EE801A3D
:102E200000EE903AF8EEE01A00EE901A00E049E069
:102E3000B8EE602A88ED091AC1EE820AC0EE801A47
:102E400000EE904AB8EEE02A00EE901AF8EE602A02
:102E5000C2EE220AC8ED0A1AC0EE802A00EE105A0D
:102E6000B8EEC02A00EE101AB8EE400AC2EE000A10
:102E700002EE106A9FED180AC8ED0B2AB8EEC23AAE
:102E800002EE101AF8EE423A83EE232A03EE107A8D
:102E900060EE800AF8EEC33A03EE101AC8ED060A97
:102EA000F7EE000AB8EE434A83EE843A22EE002A97
:102EB00088ED072A23EE000A30EE600A88ED080A42
:102EC00089F805B005B0BDE8F08F000000000020D3
:102ED00084010020000003430000803881880068DE
:102EE0000022FDF7D7BB0000B0F5004F02DB47F62C
:102EF000FF7070470349884201DA0846704700B204
:102F0000704700000080FFFF884201D208467047EA
:102F10009042FCD9104670472DE9F0478246DDE922
:102F200008671D4614468946084600F01FF82146EA
:102F3000504600F081FA804600240AE00DB1295D78
:102F400000E0FF21504600F077FA06B13055641CCE
:102F5000E4B2BC42F2D3484600F003F84046BDE874
:102F6000F087818980680122FDF794BB81898068A0
:102F70000022FDF78FBB00000349002048704FF48A
:102F80007A70C88000F02EBA0000002030B5DFED66
:102F9000220A224BB0EE601A1C78B0EE600A14B11F
:102FA0001423002404E05B88002B34D0002418E0B4
:102FB0001B4D05EB8405D5ED001A194D503505EB79
:102FC000840531EE811AD5ED001A154DA03505EBBB
:102FD000840571EEA00AD5ED001A641CA4B231EE8E
:102FE000800A9C42E4D301EE903AF8EE611A81EE39
:102FF000212A01EE103AB8EE411AC0EE811A00EE15
:10300000903A80ED002AF8EE600A80EE201AC1EDB9
:10301000001A82ED001A30BD0000000034000020CC
:10302000CC01002010490F4A488802EB800282ED53
:10303000000A0C4A503202EB8002C2ED000A094A33
:10304000A03202EB8002401C82ED001A1422B0FB79
:10305000F2F302FB13004880002801D10120087020
:1030600070470000CC010020340000200F4B10B549
:103070009FED0D0AA3F150020020A2F1500100BF04
:1030800003EB800484ED000A02EB800484ED000A67
:1030900001EB8004401C84ED000A1428F0DB044995
:1030A00000204880087010BD000000006C02002065
:1030B000340000202DE9F04105006AD02878B128BD
:1030C00067D1FDF7EDFA344CE0606878E07068880D
:1030D000010601D5A97A2171810603D5697A01B16A
:1030E00001212170410704D5BDE8F0410020FFF720
:1030F00043BF41064FF000064FF001070ED54FF4D5
:103100004870677120816681A6616661266166628A
:103110002662E661FDF7C4FAA062E5E7800702D502
:103120000020FFF729FFA878C00704D067706671F8
:10313000E08800F057F9A8784FF4FA6800074FF4D8
:103140007A7707D5A88842463946FFF7DDFEE0804A
:1031500000F048F9A878C0061BD5AE79B5F807008D
:1031600042463D463946FFF7CFFE617801B9284611
:103170000A49F20701D00A685063B20701D50A680C
:103180009063720701D50A68D063320701D50968D8
:103190000864BDE8F081000000000020F400002079
:1031A0002DE9FE4F00240C9E1D469046894682461E
:1031B00064278DE8E0000123424649465046FDF76A
:1031C00039FB002807D00A20FDF762F9641CE4B23D
:1031D000032CEED30120BDE8FE8F2DE9FF4784B01C
:1031E00000246425904689468246012607AF009751
:1031F000CDE901650123424649465046FDF71CFCD6
:10320000002807D00A20FDF743F9641CE4B2032C20
:10321000EDD3012008B0BDE8F08700001CB5FDF734
:10322000DFFCFFF755FAFEF717FF5848564900250F
:1032300001605749C0E901154FF48041C0E90351CD
:1032400045618561C5610562FDF730FA08B172B666
:10325000FEE7FEF735FFFEF755FF4C484D49F430C9
:1032600001604FF4E131C0E901150C21C560C0E9EE
:1032700004518561C561FEF709FB08B172B6FEE72E
:10328000C820FDF705F944A000F006F93F480021E9
:10329000AC30FEF7A3FA3D480421AC30FEF79EFAAD
:1032A0003A480821AC30FEF799FA38480C21AC3086
:1032B000FEF794FA3548AC300068416C41F40041A7
:1032C00041640020FFF758FEFDF7EAF9344C354918
:1032D000E0602E48FEF7AFFD4FF47A7630B132A0B1
:1032E00000F0DAF83046FDF7D3F8FBE731A000F044
:1032F000D3F82C483249343001270160878081603F
:10330000022181810146A0F58E70FFF728F830B1C7
:103310002CA000F0C1F83046FDF7BAF8FBE72149D0
:10332000CDE9005734316E23294AA1F58E70FEF79E
:1033300061FF28A000F0B0F8FDF7B2F9E062FDF7F8
:10334000AFF943F698262063FDF7AAF90546FFF783
:10335000E9FCE068281AB04202D90120FFF70CFE10
:10336000207808B1607940B1206B291AECD4323052
:1033700020632846FFF71EFCE6E7E06A291AE3D43B
:10338000401DE062F5E700000054004048000020C6
:10339000801A060000440040424F4F540D0A0000BE
:1033A00000000020840100204D5055204641494C2A
:1033B0000D0A00004D5055204F4B0D0A0000000033
:1033C000000402404E5246204641494C0D0A00007E
:1033D000F43400084E524620505458204F4B0D0AEA
:1033E0000000000010B54FF4FA6254102146FFF7B8
:1033F0008BFD0749497801B9204606490A685063A0
:103400000A6890630A68D0630968086410BD000008
:1034100000000020F40000203EB500238DF80830A5
:10342000012402ABCDE9003402F01F020023FFF7B4
:1034300073FD9DF808003EBD03B583B000218DF8F3
:103440000410491E0091012301AA04A9FDF780FF81
:1034500010B1002005B000BD9DF80400FAE770B57A
:1034600005460C460846FFF739FD0022214628464E
:10347000FFF7D2FF00F0FE0040F0020300222146D9
:10348000284600F017F80220FDF702F821462846EA
:10349000BDE87040FEF7AABE10B50446FCF763FF16
:1034A000214682B2BDE81040C8230148FEF754BA55
:1034B0003C0100201FB582B001240023CDE9003477
:1034C00002F01F0242F0200205ABFFF725FD06B017
:1034D00010BD7CB50024069D02F01F0242F02002C0
:1034E000CDE90045FFF718FD7CBD4FF04070E1EEDF
:1034F000100A704744524F4E450000000000000083
:10350000000102030406070809000000000102038D
:1035100004000000343500080000002048000000CE
:10352000D40100087C35000848000020D8080000BD
:10353000F0010008010000000000E8032003000083
:10354000000000000000000000000000000000007B
:10355000000000000000000000000000000000006B
:10356000000000000000000000000000010000005A
:0C35700010000000000000000024F40027
:040000050800019955
:00000001FF
